:020000040800F2
:1000000000800120E93C0008F10A0008FF0A00080E
:10001000050B00080B0B0008110B00080000000086
:10002000000000000000000000000000170B0008A6
:10003000250B000800000000330B0008410B0008EE
:10004000393D0008393D0008393D0008393D0008B8
:10005000393D0008393D0008393D0008393D0008A8
:10006000393D0008393D0008393D0008393D000898
:10007000393D0008393D0008393D0008393D000888
:10008000393D0008393D0008393D0008393D000878
:10009000393D0008393D0008393D0008393D000868
:1000A000393D0008393D0008393D0008393D000858
:1000B000393D0008393D0008393D0008393D000848
:1000C000393D0008393D0008393D0008393D000838
:1000D000393D0008393D0008393D0008393D000828
:1000E000393D0008393D0008393D0008393D000818
:1000F000393D0008393D0008393D0008393D000808
:10010000393D0008393D0008393D0008393D0008F7
:10011000393D0008393D0008393D0008393D0008E7
:10012000393D0008393D0008393D0008393D0008D7
:10013000393D0008393D0008393D0008393D0008C7
:10014000393D0008393D0008393D0008393D0008B7
:10015000393D0008393D0008393D0008393D0008A7
:10016000393D0008393D0008393D0008393D000897
:10017000393D0008393D0008393D00080000000005
:08018000393D0008393D00087B
:1001900010B5054C237833B9044B13B10448AFF3C1
:1001A00000800123237010BD6800002000000000C3
:1001B000C04C000808B5034B1BB103490348AFF31B
:1001C000008008BD000000006C000020C04C00084A
:1001D00053B94AB9002908BF00281CBF4FF0FF31AE
:1001E0004FF0FF3000F072B9ADF1080C6DE904CEAC
:1001F00000F006F8DDF804E0DDE9022304B0704702
:100200002DE9F047089E04468846002B4BD18A42D0
:10021000154667D9B2FA82F24AB1C2F1200701FA53
:1002200002F320FA07F7954047EA030894404FEAA3
:10023000154E230CB8FBFEF71FFA85FC0EFB178842
:1002400043EA084307FB0CF1994209D9EB1807F17F
:10025000FF3080F01B81994240F21881023F2B440D
:100260005B1AA4B2B3FBFEF00EFB103344EA034466
:1002700000FB0CFCA44509D92C1900F1FF3380F0D8
:100280000781A44540F2048102382C4440EA07402B
:10029000A4EB0C0400271EB1D4400023C6E90043A0
:1002A0003946BDE8F0878B4209D9002E00F0EB807B
:1002B0000027C6E9000138463946BDE8F087B3FAA1
:1002C00083F7002F47D18B4202D3824200F2FA809B
:1002D000841A61EB030301209846002EE0D0C6E9A2
:1002E0000048DDE702B9FFDEB2FA82F2002A40F0F0
:1002F0008F80491B4FEA154E1FFA85F80127B1FB85
:10030000FEFC230C0EFB1C1143EA014308FB0CF11D
:10031000994207D9EB180CF1FF3002D2994200F252
:10032000CD808446591AA3B2B1FBFEF00EFB101427
:1003300043EA044408FB00F8A04507D92C1900F152
:10034000FF3302D2A04500F2B6801846A4EB0804A1
:1003500040EA0C409FE7C7F1200CBB4022FA0CFE9C
:100360004EEA030E01FA07F420FA0CF521FA0CF319
:100370004FEA1E482543B3FBF8F92C0C08FB193350
:100380001FFA8EFA44EA034309FB0AF49C4202FA7C
:1003900007F200FA07F10BD91EEB030309F1FF3056
:1003A00080F087809C4240F28480A9F10209734466
:1003B0001B1BADB2B3FBF8F008FB103345EA034456
:1003C00000FB0AFAA24508D91EEB040400F1FF3332
:1003D0006BD2A24569D90238744440EA0940A0FBB7
:1003E0000289A4EB0A044C45C2464B4654D351D073
:1003F000002E69D0B1EB0A0564EB030404FA0CFC8F
:10040000FD40FC404CEA0505C6E90054002747E7DB
:10041000C2F1200320FA03F7954001FA02F021FA15
:1004200003F34FEA154E3843010CB3FBFEF71FFAF6
:1004300085F80EFB173341EA034107FB08F38B42B3
:1004400004FA02F407D9691807F1FF3C2FD28B4256
:100450002DD9023F2944CB1A81B2B3FBFEF00EFB2B
:10046000103341EA034100FB08F38B4207D96918B6
:1004700000F1FF3C17D28B4215D902382944C91A22
:1004800040EA07473BE73746304609E70746E7E6D5
:100490001846FBE64145ABD2B8EB020A69EB0E0207
:1004A00001381346A4E76046E9E7184695E7674632
:1004B000D1E781467CE702382C4447E7ACF1020CD7
:1004C0002B442FE7384608E73746E9E6704700BF78
:1004D00001F0FF01102A2BDB10F0070F08D010F8F5
:1004E000013B013A8B422DD010F0070F42B3F6D1F9
:1004F000F0B441EA012141EA014122F007047FF012
:1005000000070023F0E80256083C85EA010586EA68
:10051000010685FA47F5A3FA87F586FA47F6A5FAA4
:1005200087F68EB9EED1F0BC01F0FF0102F00702B0
:1005300032B110F8013B013A83EA010313B1F8D15B
:100540000020704701387047002D06BF354603383C
:10055000073815F0010F07D1013015F4807F02BF75
:10056000013015F4C03F0130F0BC0138704700BFC6
:1005700080B58EB004AFF860B9607A604FF0FF3399
:10058000009300230022A021F86800F055FF0346E5
:10059000FB77FB7F002B04D03B4803F089FC002352
:1005A0006DE007F1140300221A605A604FF0FF3328
:1005B00002930823019307F1140300930123F82207
:1005C000A021F86801F02CF80346FB77FB7F002B95
:1005D00006D0FB7F19462D4803F0F6FB00234EE0C2
:1005E0003B7DFF2B0ED17B7DFF2B0BD1BB68012206
:1005F0001A7007F11403023306221946786803F0D3
:10060000D0FB09E0BB6800221A707B681A4607F12C
:10061000140303CB10605160002387F827300023B8
:100620003B6214E03A6A13465B001344184A1344D1
:1006300003221946786803F0A5FB0346002B03D17B
:10064000012387F8273005E03B6A01333B623B6AB0
:10065000052BE7D997F8273083F00103DBB2002B95
:100660000CD07B681B7819467B6801331B781A46CF
:100670007B6802331B78074803F0A6FB012318466A
:100680002837BD4680BD00BFD84C0008004D00088B
:10069000084E0008204D000880B58AB000AF2B4BF3
:1006A000DB6C2A4A43F00403D364284BDB6C03F071
:1006B00004033B613B69254BDB6C244A43F0800318
:1006C000D364224BDB6C03F08003FB60FB681F4BA1
:1006D000DB6C1E4A43F00103D3641C4BDB6C03F05C
:1006E0000103BB60BB68194BDB6C184A43F0020383
:1006F000D364164BDB6C03F002037B607B68002243
:1007000020214FF0904000F0EFFD4FF400537B614B
:100710000F4BBB610023FB6107F1140319460D4821
:1007200000F03AFC20237B610123BB610023FB61C5
:1007300000233B6207F1140319464FF0904000F08C
:100740002BFC00BF2837BD4680BD00BF0010024013
:10075000000021100008004880B500AF1E4B1F4A62
:100760001A601D4B1E4A5A601B4B00229A601A4B9E
:100770000122DA60184B00221A61174B00225A61DD
:10078000154B00229A61144B0022DA61124B0022B1
:100790001A62114800F0C0FD0346002B03D042212D
:1007A000104800F051F900210B4801F01BFA0346F4
:1007B000002B03D049210B4800F046F900210648E0
:1007C00001F05BFA0346002B03D05021054800F0EE
:1007D0003BF900BF80BD00BF9000002000540040E6
:1007E000EC9C9010944D000880B588B000AF786004
:1007F0007B681B68114A93421CD14FF44073FB6025
:1008000012233B6101237B610323BB610423FB6152
:1008100007F10C0319460A4800F0BEFB094B9B6D1B
:10082000084A43F400139365064B9B6D03F40013D1
:10083000BB60BB6800BF2037BD4680BD0054004090
:10084000000400480010024080B586B000AF00F000
:1008500017FA00F061F8FFF71FFF00F0AFF9FFF79C
:100860007BFF0A2000F06AFA07F1080300221A60F1
:100870005A6007F10802FB1D19462148FFF778FE70
:100880000346002B38D0FB79002B1AD01D4803F00B
:100890009BFA00237B610BE007F108027B6913449C
:1008A0001B781946184803F08FFA7B6901337B6186
:1008B0007B69042BF0DD7B7B1946144803F084FA36
:1008C0001DE0134803F080FA00233B610BE007F1C1
:1008D00008023B6913441B7819460B4803F074FA6D
:1008E0003B6901333B613B69062BF0DDFB7B19461D
:1008F000064803F069FA02E0064803F0D9FAFEE779
:1009000090000020A84D0008B04D0008B84D000828
:10091000C04D0008C84D000880B5B8B000AF022334
:10092000C7F89C304FF48073C7F8A8301023C7F87D
:10093000AC300223C7F8C4300223C7F8C830012303
:10094000C7F8CC300A23C7F8D0300723C7F8D43013
:100950000223C7F8D8300223C7F8DC3007F19C0324
:10096000184601F03BFA0346002B03D0A721294883
:1009700000F06AF80F23C7F888300323C7F88C30DB
:100980000023C7F890300023C7F894300023C7F83D
:10099000983007F188030421184601F083FD0346CF
:1009A000002B03D0B5211B4800F04EF842233B60DA
:1009B0000023FB6300233B653B46184601F084FFA0
:1009C0000346002B03D0BD21124800F03DF84FF440
:1009D000007001F0ADF90346002B03D0C4210D488F
:1009E00000F032F801F0D8FE02460B4BA3FB0223C5
:1009F0009B09184600F099FA042000F0A3FA00229F
:100A000000214FF0FF3000F074FA00BFE037BD4620
:100A100080BD00BFE04D0008D34D621080B584B0AA
:100A200000AFF860B9607A607B689AB24FF47A736D
:100A3000B968044802F049FC7B6818461037BD4687
:100A400080BD00BFDC00002080B483B000AF7860C0
:100A50003960FEE780B582B000AF244B1B6E234A9D
:100A600043F001031366214B1B6E03F001037B600F
:100A70007B681E4B9B6D1D4A43F0805393651B4B57
:100A80009B6D03F080533B603B68032000F026FA27
:100A9000002200216FF00B0000F02BFA0022002151
:100AA0006FF00A0000F025FA002200216FF0090023
:100AB00000F01FFA002200216FF0040000F019FA84
:100AC000002200216FF0030000F013FA0022002141
:100AD0006FF0010000F00DFA002200214FF0FF300E
:100AE00000F007FA00BF0837BD4680BD0010024085
:100AF00080B400AF00BFBD465DF8047B704780B492
:100B000000AFFEE780B400AFFEE780B400AFFEE7C1
:100B100080B400AFFEE780B400AF00BFBD465DF813
:100B2000047B704780B400AF00BFBD465DF8047B16
:100B3000704780B400AF00BFBD465DF8047B7047CE
:100B400080B500AF00F0E0F800F018FA00BF80BDFB
:100B500080B400AF174BD3F88830164A43F47003C3
:100B6000C2F88830144B1B68134A43F0010313602A
:100B7000114B00229A60104B1B680F4A23F0A853B8
:100B800023F4102313600C4B4FF48052DA600A4BAD
:100B90001B68094A23F480231360074B00229A61E3
:100BA000044B4FF000629A6000BFBD465DF8047BC5
:100BB000704700BF00ED00E00010024080B500AFBC
:100BC000154B164A1A60144B4FF4E1325A60124B1F
:100BD00000229A60104B0022DA600F4B00221A614B
:100BE0000D4B0C225A610C4B00229A610A4B0022D9
:100BF000DA61094B00221A62074B00225A6206484A
:100C000002F012FB0346002B03D044210448FFF7F7
:100C10001BFF00BF80BD00BFDC000020004400407F
:100C2000F44D000880B588B000AF78607B681B6821
:100C3000114A93421CD1114B9B6D104A43F400336F
:100C400093650E4B9B6D03F40033BB60BB680C23B4
:100C5000FB6002233B6100237B610323BB6107230D
:100C6000FB6107F10C0319464FF0904000F094F936
:100C700000BF2037BD4680BD004400400010024048
:100C800080B582B000AF0023FB710C4B1B680B4A90
:100C900043F480731360032000F020F9002000F07B
:100CA0000FF80346002B02D00123FB7101E0FFF790
:100CB000D1FEFB7918460837BD4680BD00200240B2
:100CC00080B584B000AF78600023FB730C4B1B68C9
:100CD0000C4AA2FB03239B09184600F026F90346A1
:100CE000002B02D00123FB7305E0002279684FF04E
:100CF000FF3000F0FEF8FB7B18461037BD4680BD84
:100D000000000020D34D621080B400AF044B1B687C
:100D10000133034A136000BFBD465DF8047B704792
:100D20005401002080B400AF034B1B681846BD4639
:100D30005DF8047B704700BF5401002080B584B08B
:100D400000AF7860FFF7EEFFB8607B68FB60FB6880
:100D5000B3F1FF3F02D0FB680133FB6000BFFFF738
:100D6000E1FF0246BB68D31AFA689A42F7D800BF7F
:100D70001037BD4680BD000080B485B000AF7860FC
:100D80007B6803F00703FB600C4BDB68BB60BA6851
:100D90004FF6FF031340BB60FB681A02BB681343A6
:100DA00043F0BF6343F40033BB60044ABB68D360C5
:100DB00000BF1437BD465DF8047B704700ED00E0CE
:100DC00080B400AF044BDB681B0A03F0070318462E
:100DD000BD465DF8047B704700ED00E080B483B051
:100DE00000AF03463960FB7197F90730002B0BDA2F
:100DF0003B68DAB20C49FB7903F00F03043B1201A4
:100E0000D2B20B441A7609E03B68DAB2074997F987
:100E100007301201D2B20B4483F8002300BF0C3715
:100E2000BD465DF8047B704700ED00E000E100E0A6
:100E300080B489B000AFF860B9607A60FB6803F0F5
:100E40000703FB61FB69C3F10703042B28BF0423DD
:100E5000BB61FB690433062B02D9FB69033B00E04D
:100E600000237B614FF0FF32BB6902FA03F3DA43E0
:100E7000BB681A407B699A404FF0FF317B6901FAE9
:100E800003F3D9437B680B40134318462437BD4610
:100E90005DF8047B7047000080B582B000AF7860D9
:100EA0007B68013BB3F1807F01D301230FE00A4A45
:100EB0007B68013B53600F214FF0FF30FFF78EFF3F
:100EC000054B00229A60044B07221A600023184643
:100ED0000837BD4680BD00BF10E000E080B582B09D
:100EE00000AF78607868FFF747FF00BF0837BD465E
:100EF00080BD80B586B000AF0346B9607A60FB73F1
:100F000000237B61FFF75CFF78617A68B9687869D4
:100F1000FFF78EFF024697F90F3011461846FFF78C
:100F20005DFF00BF1837BD4680BD80B582B000AF01
:100F300078607868FFF7B0FF034618460837BD466B
:100F400080BD000080B483B000AF78607B68042B64
:100F500006D1094B1B68084A43F00403136005E0FF
:100F6000054B1B68044A23F00403136000BF0C37D1
:100F7000BD465DF8047B704710E000E080B500AF2F
:100F800000F002F800BF80BD80B400AF00BFBD46D6
:100F90005DF8047B7047000080B487B000AF7860D4
:100FA000396000237B617FE13B681A6801217B691E
:100FB00001FA03F31340FB60FB68002B00F0718122
:100FC0003B685B68022B03D03B685B68122B23D124
:100FD0007B69DA087B68083253F822303B617B6911
:100FE00003F007039B000F2202FA03F3DB433A6985
:100FF00013403B613B681A697B6903F007039B0060
:1010000002FA03F33A6913433B617B69DA087B68B0
:101010000832396943F822107B681B683B617B69A1
:101020005B00032202FA03F3DB433A6913403B619E
:101030003B685B6803F003027B695B0002FA03F321
:101040003A6913433B617B683A691A603B685B68A5
:10105000012B0BD03B685B68022B07D03B685B68B9
:10106000112B03D03B685B68122B30D17B689B68E7
:101070003B617B695B00032202FA03F3DB433A69BD
:1010800013403B613B68DA687B695B0002FA03F35B
:101090003A6913433B617B683A699A607B685B6895
:1010A0003B6101227B6902FA03F3DB433A69134097
:1010B0003B613B685B681B0903F001027B6902FA34
:1010C00003F33A6913433B617B683A695A603B68B2
:1010D0005B6803F00303032B18D17B68DB6A3B6179
:1010E00001227B6902FA03F3DB433A6913403B6157
:1010F0003B685B68DB0803F001027B6902FA03F3DB
:101100003A6913433B617B683A69DA627B68DB6862
:101110003B617B695B00032202FA03F3DB433A691C
:1011200013403B613B689A687B695B0002FA03F3FA
:101130003A6913433B617B683A69DA603B685B68F4
:1011400003F08053002B00F0AC805E4B1B6E5D4AB9
:1011500043F0010313665B4B1B6E03F00103BB609E
:10116000BB68594A7B699B08023352F823303B61C4
:101170007B6903F003039B000F2202FA03F3DB43B6
:101180003A6913403B617B68B3F1904F25D07B688F
:101190004E4A93421FD07B684D4A934219D07B68D8
:1011A0004C4A934213D07B684B4A93420DD07B68E4
:1011B0004A4A934207D07B68494A934201D10623A9
:1011C0000CE007230AE0052308E0042306E00323DC
:1011D00004E0022302E0012300E000237A6902F028
:1011E0000302920093403A6913433B6136497B699D
:1011F0009B0802333A6941F823203A4B1B683B6154
:10120000FB68DB433A6913403B613B685B6803F46E
:101210008033002B03D03A69FB6813433B61314AAA
:101220003B6913602F4B5B683B61FB68DB433A69AA
:1012300013403B613B685B6803F40033002B03D031
:101240003A69FB6813433B61264A3B695360254B6F
:101250009B683B61FB68DB433A6913403B613B6839
:101260005B6803F48013002B03D03A69FB681343D7
:101270003B611C4A3B6993601A4BDB683B61FB682E
:10128000DB433A6913403B613B685B6803F400133E
:10129000002B03D03A69FB6813433B61114A3B6959
:1012A000D3607B6901337B613B681A687B6922FAF2
:1012B00003F3002B7FF478AE00BF1C37BD465DF80A
:1012C000047B704700100240000001400004004809
:1012D00000080048000C00480010004800140048B6
:1012E000001800480004014080B483B000AF78606B
:1012F0000B467B8013467B707B78002B03D07A886B
:101300007B689A6102E07A887B689A6200BF0C373A
:10131000BD465DF8047B704780B582B000AF786051
:101320007B68002B01D1012381E07B6893F8413079
:10133000DBB2002B06D17B68002283F8402078685E
:10134000FFF752FA7B68242283F841207B681B68F0
:101350001A687B681B6822F001021A607B685A6871
:101360007B681B6822F070621A617B681B689A6850
:101370007B681B6822F400429A607B68DB68012B63
:1013800007D17B689A687B681B6842F400429A60C8
:1013900006E07B689A687B681B6842F404429A60A6
:1013A0007B68DB68022B04D17B681B684FF400620A
:1013B0005A607B681B685B687A68126843F0007348
:1013C00043F4004353607B681B68DA687B681B68E2
:1013D00022F40042DA607B681A697B685B6942EA42
:1013E00003017B689B691A027B681B680A43DA6009
:1013F0007B68D9697B681A6A7B681B680A431A6034
:101400007B681B681A687B681B6842F001021A60DF
:101410007B6800225A647B68202283F841207B6825
:1014200000221A637B68002283F8422000231846BA
:101430000837BD4680BD000080B588B002AFF860B7
:101440007A601A460B467B8113463B81FB6893F812
:101450004130DBB2202B40F0DA80FB6893F840305B
:10146000012B01D10223D3E0FB68012283F8402045
:10147000FFF758FC78617B690093192301224FF430
:101480000041F86800F05EFA0346002B01D001230A
:10149000BEE0FB68212283F84120FB68102283F81C
:1014A0004220FB6800225A64FB687A685A62FB6833
:1014B0003A895A85FB6800225A63FB685B8D9BB2B0
:1014C000FF2B0ED9FB68FF221A85FB681B8DDAB251
:1014D0007989514B00934FF08073F86800F054FB0A
:1014E0006CE0FB685B8D9AB2FB681A85FB681B8D0C
:1014F000DAB27989484B00934FF00073F86800F036
:1015000043FB5BE07A69396AF86800F05BFA0346EE
:10151000002B01D001237BE0FB685B6A1A78FB6833
:101520001B689A62FB685B6A5A1CFB685A62FB681C
:101530005B8D9BB2013B9AB2FB685A85FB681B8DA1
:10154000013B9AB2FB681A85FB685B8D9BB2002B4E
:1015500034D0FB681B8D002B30D17B6900933B6A34
:1015600000228021F86800F0EDF90346002B01D03D
:1015700001234DE0FB685B8D9BB2FF2B0ED9FB680E
:10158000FF221A85FB681B8DDAB27989002300934C
:101590004FF08073F86800F0F7FA0FE0FB685B8D9E
:1015A0009AB2FB681A85FB681B8DDAB27989002331
:1015B00000934FF00073F86800F0E6FAFB685B8D6B
:1015C0009BB2002B9ED17A69396AF86800F03AFA2A
:1015D0000346002B01D001231AE0FB681B68202280
:1015E000DA61FB681B685968FB681A680B4B0B4093
:1015F0005360FB68202283F84120FB68002283F8B7
:101600004220FB68002283F84020002300E00223F0
:1016100018461837BD4680BD0020008000E800FE57
:1016200080B588B002AFF860084611461A460346F6
:101630007B810B463B811346FB80FB6893F841306E
:10164000DBB2202B40F0FD803B6A002B02D0BB8C2C
:10165000002B05D1FB684FF400725A640123F1E0BE
:10166000FB6893F84030012B01D10223EAE0FB68CC
:10167000012283F84020FFF755FB78617B690093D6
:10168000192301224FF40041F86800F05BF903468A
:10169000002B01D00123D5E0FB68222283F84120F2
:1016A000FB68402283F84220FB6800225A64FB68F2
:1016B0003A6A5A62FB68BA8C5A85FB6800225A6300
:1016C000F8883A8979897B690193BB6A009303465C
:1016D000F86800F0BFF80346002B05D0FB68002235
:1016E00083F840200123ADE0FB685B8D9BB2FF2BAC
:1016F0000ED9FB68FF221A85FB681B8DDAB2798947
:10170000524B00934FF08073F86800F03DFA0FE001
:10171000FB685B8D9AB2FB681A85FB681B8DDAB299
:1017200079894A4B00934FF00073F86800F02CFA67
:101730007B690093BB6A00220421F86800F002F97B
:101740000346002B01D001237CE0FB681B685A6A2A
:10175000FB685B6AD2B21A70FB685B6A5A1CFB6852
:101760005A62FB681B8D013B9AB2FB681A85FB68C5
:101770005B8D9BB2013B9AB2FB685A85FB685B8D1F
:101780009BB2002B34D0FB681B8D002B30D17B69C2
:101790000093BB6A00228021F86800F0D3F803466A
:1017A000002B01D001234DE0FB685B8D9BB2FF2B2A
:1017B0000ED9FB68FF221A85FB681B8DDAB2798986
:1017C000002300934FF08073F86800F0DDF90FE01C
:1017D000FB685B8D9AB2FB681A85FB681B8DDAB2D9
:1017E0007989002300934FF00073F86800F0CCF97A
:1017F000FB685B8D9BB2002B9AD17A69B96AF86855
:1018000000F020F90346002B01D001231AE0FB6809
:101810001B682022DA61FB681B685968FB681A683C
:101820000B4B0B405360FB68202283F84120FB6880
:10183000002283F84220FB68002283F84020002326
:1018400000E0022318461837BD4680BD0024008002
:1018500000E800FE80B586B002AFF8600846114689
:101860001A4603467B810B463B811346FB80FB886F
:10187000DAB27989204B00930023F86800F084F9EC
:10188000FA69B969F86800F09DF80346002B01D0A9
:1018900001232CE0FB88012B05D13B89DAB2FB68E0
:1018A0001B689A6215E03B891B0A9BB2DAB2FB689F
:1018B0001B689A62FA69B969F86800F083F8034610
:1018C000002B01D0012312E03B89DAB2FB681B68D0
:1018D0009A62FB690093BB6900224021F86800F01E
:1018E00031F80346002B01D0012300E00023184605
:1018F0001037BD4680BD00BF0020008080B483B09B
:1019000000AF78607B681B689B6903F00203022BC1
:1019100003D17B681B6800229A627B681B689B6905
:1019200003F00103012B07D07B681B689A697B6871
:101930001B6842F001029A6100BF0C37BD465DF89A
:10194000047B704780B584B000AFF860B9603B603D
:101950001346FB7122E03B68B3F1FF3F1ED0FFF757
:10196000E1F90246BB69D31A3A689A4202D33B684E
:10197000002B13D1FB685B6C43F02002FB685A64B8
:10198000FB68202283F84120FB68002283F8422074
:10199000FB68002283F8402001230FE0FB681B68EE
:1019A0009A69BB681340BA689A420CBF01230023AE
:1019B000DBB21A46FB799A42CDD000231846103785
:1019C000BD4680BD80B584B000AFF860B9607A6074
:1019D0002CE07A68B968F86800F070F80346002BCC
:1019E00001D001232AE0BB68B3F1FF3F1ED0FFF70F
:1019F00099F902467B68D31ABA689A4202D3BB6847
:101A0000002B13D1FB685B6C43F02002FB685A6427
:101A1000FB68202283F84120FB68002283F84220E3
:101A2000FB68002283F84020012307E0FB681B6865
:101A30009B6903F00203022BCBD100231846103719
:101A4000BD4680BD80B584B000AFF860B9607A60F3
:101A500028E07A68B968F86800F030F80346002B8F
:101A600001D0012326E0FFF75DF902467B68D31A17
:101A7000BA689A4202D3BB68002B13D1FB685B6C37
:101A800043F02002FB685A64FB68202283F841205F
:101A9000FB68002283F84220FB68002283F8402084
:101AA000012307E0FB681B689B6903F02003202BE0
:101AB000CFD1002318461037BD4680BD80B584B015
:101AC00000AFF860B9607A60FB681B689B6903F03F
:101AD0001003102B51D122E0BB68B3F1FF3F1ED0A1
:101AE000FFF720F902467B68D31ABA689A4202D3FC
:101AF000BB68002B13D1FB685B6C43F02002FB68D2
:101B00005A64FB68202283F84120FB68002283F896
:101B10004220FB68002283F8402001232EE0FB686E
:101B20001B689B6903F02003202BD5D1FB681B6841
:101B30001022DA61FB681B682022DA61F868FFF77F
:101B4000DDFEFB681B685968FB681A680D4B0B408B
:101B50005360FB685B6C43F00402FB685A64FB68EB
:101B6000202283F84120FB68002283F84220FB6892
:101B7000002283F84020012300E00023184610379C
:101B8000BD4680BD00E800FE80B485B000AFF860BF
:101B90007B600B467B8113467B72FB681B685A682F
:101BA000BB695B0D03F480610D4B0B43DB4302EA21
:101BB00003017B89C3F309027B7A1B0403F47F03CF
:101BC0001A437B681A43BB691A43FB681B680A43C4
:101BD0005A6000BF1437BD465DF8047B704700BFF4
:101BE000FF63FF0380B483B000AF786039607B6827
:101BF00093F84130DBB2202B38D17B6893F840302A
:101C0000012B01D1022332E07B68012283F84020BE
:101C10007B68242283F841207B681B681A687B68F4
:101C20001B6822F001021A607B681B681A687B68D7
:101C30001B6822F480521A607B681B6819687B68F5
:101C40001B683A680A431A607B681B681A687B68DD
:101C50001B6842F001021A607B68202283F8412051
:101C60007B68002283F84020002300E0022318460E
:101C70000C37BD465DF8047B704780B485B000AF7B
:101C8000786039607B6893F84130DBB2202B39D122
:101C90007B6893F84030012B01D1022333E07B684D
:101CA000012283F840207B68242283F841207B684E
:101CB0001B681A687B681B6822F001021A607B6847
:101CC0001B681B68FB60FB6823F47063FB603B6868
:101CD0001B02FA681343FB607B681B68FA681A6092
:101CE0007B681B681A687B681B6842F001021A60F7
:101CF0007B68202283F841207B68002283F8402003
:101D0000002300E0022318461437BD465DF8047B2B
:101D10007047000080B400AF044B1B6803F4C0633D
:101D20001846BD465DF8047B704700BF0070004058
:101D300080B485B000AF78607B68B3F5007F30D1A8
:101D4000234B1B6803F4C063B3F5007F38D0204BEE
:101D50001B6823F4C0631E4A43F4007313601D4BD9
:101D60001B68322202FB03F31B4AA2FB03239B0CDA
:101D70000133FB6002E0FB68013BFB60144B5B69D5
:101D800003F48063B3F5806F02D1FB68002BF2D1BE
:101D90000F4B5B6903F48063B3F5806F10D10323AD
:101DA0000FE00B4B1B6803F4C063B3F5806F07D0E3
:101DB000074B1B6823F4C063054A43F48063136038
:101DC000002318461437BD465DF8047B704700BFFA
:101DD000007000400000002083DE1B4380B588B007
:101DE00000AF78607B68002B01D1012353E3A34B44
:101DF0009B6803F00C03BB61A04BDB6803F003039B
:101E00007B617B681B6803F01003002B00F0DF8010
:101E1000BB69002B07D0BB690C2B40F086807B6927
:101E2000012B40F08280954B1B6803F00203002BCE
:101E300005D07B689B69002B01D101232BE37B68D4
:101E40001A6A8E4B1B6803F00803002B04D08B4BDF
:101E50001B6803F0F00305E0884BD3F894301B09AE
:101E600003F0F003934223D27B681B6A184600F00C
:101E7000CBFC0346002B01D001230CE37F4B1B68F6
:101E80007E4A43F0080313607C4B1B6823F0F0028A
:101E90007B681B6A794913430B60784B5B6823F4BA
:101EA0007F427B68DB691B02744913434B6022E06D
:101EB000724B1B68714A43F0080313606F4B1B6839
:101EC00023F0F0027B681B6A6C4913430B606B4B79
:101ED0005B6823F47F427B68DB691B02674913431D
:101EE0004B607B681B6A184600F08EFC0346002B93
:101EF00001D00123CFE200F0B3FB01465F4B9B68AA
:101F00001B0903F00F035E4AD35C03F01F0321FAA1
:101F100003F35C4A13600020FEF7D2FE0346FB7316
:101F2000FB7B002B52D0FB7BB5E27B689B69002BCF
:101F300032D0524B1B68514A43F001031360FEF745
:101F4000F1FE386108E0FEF7EDFE02463B69D31A68
:101F5000022B01D903239EE2484B1B6803F00203C6
:101F6000002BF0D0454B1B68444A43F00803136034
:101F7000424B1B6823F0F0027B681B6A3F49134306
:101F80000B603E4B5B6823F47F427B68DB691B027E
:101F90003A4913434B601AE0384B1B68374A23F029
:101FA00001031360FEF7BEFE386108E0FEF7BAFEDB
:101FB00002463B69D31A022B01D903236BE22F4B54
:101FC0001B6803F00203002BF0D100E000BF7B6828
:101FD0001B6803F00103002B72D0BB69082B05D0EE
:101FE000BB690C2B0ED17B69032B0BD1234B1B68D8
:101FF00003F40033002B62D07B685B68002B5ED15A
:10200000012348E27B685B68B3F5803F06D11B4B38
:102010001B681A4A43F4803313601DE07B685B68D9
:10202000B3F5A02F0CD1154B1B68144A43F4802341
:102030001360124B1B68114A43F4803313600BE0AA
:102040000E4B1B680D4A23F4803313600B4B1B6847
:102050000A4A23F4802313607B685B68002B1AD044
:10206000FEF760FE38610FE0FEF75CFE02463B695A
:10207000D31A642B08D903230DE200BF00100240DD
:102080001C4E000800000020AE4B1B6803F4003318
:10209000002BE9D014E0FEF745FE386108E0FEF7BA
:1020A00041FE02463B69D31A642B01D90323F2E1B6
:1020B000A44B1B6803F40033002BF0D100E000BFF9
:1020C0007B681B6803F00203002B60D0BB69042B04
:1020D00005D0BB690C2B19D17B69022B16D1994B0A
:1020E0001B6803F48063002B05D07B68DB68002B42
:1020F00001D10123CFE1934B5B6823F0F8527B6859
:102100001B691B068F4913434B6040E07B68DB680B
:10211000002B23D08B4B1B688A4A43F480731360D7
:10212000FEF700FE386108E0FEF7FCFD02463B6961
:10213000D31A022B01D90323ADE1824B1B6803F4B0
:102140008063002BF0D07F4B5B6823F0F8527B68F4
:102150001B691B067B4913434B6018E0794B1B68D6
:10216000784A23F480731360FEF7DCFD386108E0E1
:10217000FEF7D8FD02463B69D31A022B01D903238F
:1021800089E1704B1B6803F48063002BF0D17B68FE
:102190001B6803F00803002B3CD07B685B69002BB5
:1021A0001CD0684BD3F89430664A43F00103C2F860
:1021B0009430FEF7B7FD386108E0FEF7B3FD024644
:1021C0003B69D31A022B01D9032364E15D4BD3F899
:1021D000943003F00203002BEFD01BE0594BD3F8EF
:1021E0009430584A23F00103C2F89430FEF79AFD68
:1021F000386108E0FEF796FD02463B69D31A022BD0
:1022000001D9032347E14F4BD3F8943003F0020385
:10221000002BEFD17B681B6803F00403002B00F058
:10222000A5800023FB77474B9B6D03F08053002B69
:102230000DD1444B9B6D434A43F080539365414B12
:102240009B6D03F08053BB60BB680123FB773E4B63
:102250001B6803F48073002B18D13B4B1B683A4A70
:1022600043F480731360FEF75DFD386108E0FEF70C
:1022700059FD02463B69D31A022B01D903230AE117
:10228000314B1B6803F48073002BF0D07B689B6894
:10229000012B08D12B4BD3F890302A4A43F001038D
:1022A000C2F8903024E07B689B68052B10D1254B49
:1022B000D3F89030234A43F00403C2F89030214B06
:1022C000D3F890301F4A43F00103C2F890300FE07A
:1022D0001C4BD3F890301B4A23F00103C2F8903016
:1022E000184BD3F89030174A23F00403C2F890300B
:1022F0007B689B68002B16D0FEF714FD38610AE05E
:10230000FEF710FD02463B69D31A41F28832934230
:1023100001D90323BFE00B4BD3F8903003F0020345
:10232000002BEDD019E0FEF7FDFC38610EE0FEF762
:10233000F9FC02463B69D31A41F28832934205D92F
:102340000323A8E00010024000700040544BD3F873
:10235000903003F00203002BE9D1FB7F012B05D164
:102360004F4B9B6D4E4A23F0805393657B689B6A6D
:10237000002B00F08F80BB690C2B00F089807B68FC
:102380009B6A022B56D1464B1B68454A23F080734B
:102390001360FEF7C7FC386108E0FEF7C3FC024695
:1023A0003B69D31A022B01D9032374E03C4B1B6811
:1023B00003F00073002BF0D17B681B6B013B1A010B
:1023C0007B685B6B1B021A437B689B6B1B095B047E
:1023D0001A437B68DB6A1A437B68DB6B5B08013B53
:1023E0005B051A437B681B6C5B08013B5B062C4951
:1023F0001343CB602A4B1B68294A43F08073136058
:10240000274BDB68264A43F08073D360FEF78AFCD3
:10241000386108E0FEF786FC02463B69D31A022BBE
:1024200001D9032337E01E4B1B6803F00073002B18
:10243000F0D02FE01A4B1B68194A23F08073136009
:10244000174B1B6803F02053002B05D1144BDB689E
:10245000134A23F00303D360114BDB68104A23F0C7
:10246000887323F48033D360FEF75CFC386108E0A6
:10247000FEF758FC02463B69D31A022B01D903230D
:1024800009E0074B1B6803F00073002BF0D101E05B
:10249000012300E0002318462037BD4680BD00BF61
:1024A0000010024080B584B000AF786039607B686E
:1024B000002B01D10123C6E0654B1B6803F0070325
:1024C0003A689A4210D9624B1B6823F007026049B0
:1024D0003B6813430B605E4B1B6803F007033A68CD
:1024E0009A4201D00123AEE07B681B6803F0010330
:1024F000002B4CD07B685B68032B07D1554B1B68C6
:1025000003F00073002B21D101239CE07B685B6802
:10251000022B07D14F4B1B6803F40033002B15D15E
:10252000012390E07B685B68002B07D1494B1B6857
:1025300003F00203002B09D1012384E0454B1B6803
:1025400003F48063002B01D101237CE0414B9B68A5
:1025500023F003027B685B683E4913438B60FEF700
:10256000E1FBF8600AE0FEF7DDFB0246FB68D31AE8
:1025700041F28832934201D9032364E0354B9B68D2
:1025800003F00C027B685B689B009A42EBD17B688E
:102590001B6803F00203002B08D02E4B9B6823F02E
:1025A000F0027B689B682B4913438B60284B1B68A8
:1025B00003F007033A689A4210D2254B1B6823F0B8
:1025C000070223493B6813430B60214B1B6803F050
:1025D00007033A689A4201D0012334E07B681B6804
:1025E00003F00403002B08D01A4B9B6823F4E0622D
:1025F0007B68DB68174913438B607B681B6803F0BB
:102600000803002B09D0134B9B6823F460527B68AE
:102610001B69DB000F4913438B6000F021F8014672
:102620000C4B9B681B0903F00F030B4AD35C03F0B0
:102630001F0321FA03F3094A13600020FEF740FB51
:102640000346FB72FB7A18461037BD4680BD00BFBB
:1026500000200240001002401C4E00080000002034
:1026600080B489B000AF0023FB610023BB61464BFF
:102670009B6803F00C033B61434BDB6803F00303EF
:10268000FB603B69002B05D03B690C2B21D1FB681B
:10269000012B1ED13C4B1B6803F00803002B07D114
:1026A000394BD3F894301B0A03F00F03FB6105E0AC
:1026B000354B1B681B0903F00F03FB61334AFB69B1
:1026C00052F82330FB613B69002B0DD1FB69BB61E4
:1026D0000AE03B69042B02D12D4BBB6104E03B694E
:1026E000082B01D12B4BBB613B690C2B45D1264BF1
:1026F000DB6803F00303BB60234BDB681B0903F0BB
:10270000070301337B60BB68022B02D0032B0DD083
:1027100019E01F4A7B68B2FBF3F31B4AD268120A26
:1027200002F07F0202FB03F37B6119E0194A7B6828
:10273000B2FBF3F3144AD268120A02F07F0202FBE2
:1027400003F37B610CE0FA697B68B2FBF3F30E4A9A
:10275000D268120A02F07F0202FB03F37B6100BF22
:10276000094BDB685B0E03F0030301335B003B6046
:102770007A693B68B2FBF3F3BB61BB691846243747
:10278000BD465DF8047B704700100240344E0008DF
:102790000024F40000127A0080B400AF034B1B68E1
:1027A0001846BD465DF8047B704700BF000000205E
:1027B00080B500AFFFF7F0FF0146064B9B681B0A90
:1027C00003F00703044AD35C03F01F0321FA03F369
:1027D000184680BD001002402C4E000880B500AFA6
:1027E000FFF7DAFF0146064B9B68DB0A03F007039D
:1027F000044AD35C03F01F0321FA03F3184680BD9B
:10280000001002402C4E000880B586B000AF786002
:1028100000233B612A4B9B6D03F08053002B03D0B8
:10282000FFF778FA786114E0254B9B6D244A43F05A
:1028300080539365224B9B6D03F08053FB60FB68D4
:10284000FFF768FA78611E4B9B6D1D4A23F0805399
:1028500093657B69B3F5007F0BD17B68802B19D919
:102860007B68A02B02D902233B6113E001233B616B
:1028700010E07B68802B02D903233B610AE07B6870
:10288000802B02D102233B6104E07B68702B01D1D5
:1028900001233B610B4B1B6823F0070209493B698D
:1028A00013430B60074B1B6803F007033A699A4216
:1028B00001D0012300E0002318461837BD4680BD33
:1028C000001002400020024080B586B000AF786062
:1028D0000023FB740023BB747B681B6803F4006354
:1028E000002B3FD07B685B6EB3F5800F1CD0B3F537
:1028F000800F02D8002B0ED01FE0B3F5000F03D0DD
:10290000B3F5400F1CD018E0854BDB68844A43F4D4
:102910008033D36015E07B6804330021184600F053
:10292000B9FA0346FB740CE07B682033002118469B
:1029300000F0A0FB0346FB7403E00123FB7400E0FE
:1029400000BFFB7C002B0BD1754BD3F8883023F4F0
:1029500040027B685B6E72491343C1F8883001E026
:10296000FB7CBB747B681B6803F48053002B3FD057
:102970007B689B6EB3F1807F1CD0B3F1807F02D85F
:10298000002B0ED01FE0B3F1007F03D0B3F1407FE6
:102990001CD018E0624BDB68614A43F48033D3609B
:1029A00015E07B6804330021184600F073FA0346F3
:1029B000FB740CE07B6820330021184600F05AFBC2
:1029C0000346FB7403E00123FB7400E000BFFB7CC3
:1029D000002B0BD1524BD3F8883023F040727B6828
:1029E0009B6E4F491343C1F8883001E0FB7CBB74F8
:1029F0007B681B6803F40033002B00F0A0800023E9
:102A00007B74474B9B6D03F08053002B01D1012356
:102A100000E00023002B0DD0414B9B6D404A43F05A
:102A2000805393653E4B9B6D03F08053BB60BB6846
:102A300001237B743B4B1B683A4A43F48073136059
:102A4000FEF770F9F86009E0FEF76CF90246FB68E2
:102A5000D31A022B02D90323FB7405E0314B1B6808
:102A600003F48073002BEFD0FB7C002B5CD12C4B4C
:102A7000D3F8903003F440737B617B69002B1FD047
:102A80007B68D3F884307A699A4219D0244BD3F802
:102A9000903023F440737B61214BD3F89030204A6F
:102AA00043F48033C2F890301D4BD3F890301C4A69
:102AB00023F48033C2F89030194A7B69C2F8903011
:102AC0007B6903F00103002B16D0FEF72BF9F860A9
:102AD0000BE0FEF727F90246FB68D31A41F2883271
:102AE000934202D90323FB7406E00D4BD3F89030D8
:102AF00003F00203002BECD0FB7C002B0CD1084B25
:102B0000D3F8903023F440727B68D3F884300449C2
:102B10001343C1F8903009E0FB7CBB7406E000BFB2
:102B20000010024000700040FB7CBB747B7C012BDA
:102B300005D19E4B9B6D9D4A23F0805393657B6826
:102B40001B6803F00103002B0AD0984BD3F88830A0
:102B500023F003027B689B6B94491343C1F88830D0
:102B60007B681B6803F00203002B0AD08F4BD3F85D
:102B7000883023F00C027B68DB6B8C491343C1F86F
:102B800088307B681B6803F00403002B0AD0874B56
:102B9000D3F8883023F030027B681B6C83491343E1
:102BA000C1F888307B681B6803F00803002B0AD04B
:102BB0007E4BD3F8883023F0C0027B685B6C7B4986
:102BC0001343C1F888307B681B6803F01003002BA7
:102BD0000AD0764BD3F8883023F440727B689B6C24
:102BE00072491343C1F888307B681B6803F02003E7
:102BF000002B0AD06D4BD3F8883023F440627B68F9
:102C0000DB6C6A491343C1F888307B681B6803F4A6
:102C10000073002B0AD0654BD3F8883023F4402290
:102C20007B68DB6D61491343C1F888307B681B68A2
:102C300003F48063002B0AD05C4BD3F8883023F474
:102C400040127B681B6E59491343C1F888307B687A
:102C50001B6803F04003002B0AD0544BD3F8883094
:102C600023F440527B681B6D50491343C1F88830F0
:102C70007B681B6803F08003002B0AD04B4BD3F812
:102C8000883023F440427B685B6D48491343C1F8A8
:102C900088307B681B6803F48073002B0AD0434B99
:102CA000D3F8883023F440327B689B6D3F4913434F
:102CB000C1F888307B681B6803F40053002B28D0D0
:102CC0003A4BD3F8883023F040627B68DB6E37499B
:102CD0001343C1F888307B68DB6EB3F1006F06D117
:102CE000324BDB68314A43F48013D36011E07B68D8
:102CF000DB6EB3F1806F0CD17B6804330121184681
:102D000000F0C8F80346FB74FB7C002B01D0FB7C71
:102D1000BB747B681B6803F40023002B28D0234B73
:102D2000D3F8883023F040627B681B6F1F49134340
:102D3000C1F888307B681B6FB3F1006F06D11B4B65
:102D4000DB681A4A43F48013D36011E07B681B6F81
:102D5000B3F1806F0CD17B6804330121184600F079
:102D600099F80346FB74FB7C002B01D0FB7CBB7401
:102D70007B681B6803F48023002B2BD00B4BD3F80C
:102D8000883023F040627B685B6F08491343C1F8C9
:102D900088307B685B6FB3F1006F09D1034BDB6850
:102DA000024A43F48013D36014E000BF00100240D5
:102DB0007B685B6FB3F1806F0CD17B6804330121BA
:102DC000184600F067F80346FB74FB7C002B01D02B
:102DD000FB7CBB747B681B6803F48043002B2FD003
:102DE0002B4BD3F8883023F040527B689B6F2849E7
:102DF0001343C1F888307B689B6FB3F1805F0DD1BE
:102E00007B6804330221184600F044F80346FB7443
:102E1000FB7C002B14D0FB7CBB7411E07B689B6FA8
:102E2000B3F1005F0CD17B6820330221184600F01B
:102E300021F90346FB74FB7C002B01D0FB7CBB74A7
:102E40007B681B6803F40043002B0AD0104BD3F8B7
:102E5000883023F080427B68DB6F0D491343C1F853
:102E600088307B681B6803F48033002B0BD0084B41
:102E7000D3F8883023F000427B68D3F880300449CF
:102E80001343C1F88830BB7C18461837BD4680BD57
:102E90000010024080B584B000AF78603960002334
:102EA000FB73734BDB6803F00303002B18D0704BEC
:102EB000DB6803F003027B681B689A420DD17B68D4
:102EC0001B68002B09D06A4BDB681B0903F0070362
:102ED0005A1C7B685B689A4244D00123FB7341E033
:102EE0007B681B68022B0CD0032B13D0012B20D145
:102EF0005F4B1B6803F00203002B1DD10123FB7302
:102F00001AE05B4B1B6803F48063002B16D101238E
:102F1000FB7313E0564B1B6803F40033002B0FD1F7
:102F2000534B1B6803F48023002B09D10123FB734F
:102F300006E00123FB7304E000BF02E000BF00E0F5
:102F400000BFFB7B002B0DD1494BDB6823F07302E4
:102F50007B6819687B685B68013B1B010B43444934
:102F60001343CB60FB7B002B7DD1414B1B68404A58
:102F700023F080631360FDF7D5FEB86009E0FDF72C
:102F8000D1FE0246BB68D31A022B02D90323FB737E
:102F900005E0374B1B6803F00063002BEFD1FB7B90
:102FA000002B60D13B68002B11D1314B1B6923F4FE
:102FB0001F3323F440737A68926811027A68D268EA
:102FC000120952040A432A4913430B6127E03B6864
:102FD000012B12D1264B1B6923F4C00323F4FE43BB
:102FE0007A68926811027A6812695208013A5205A9
:102FF0000A431F4913430B6111E01D4B1B6923F06A
:10300000C06323F4FE437A68926811027A685269B9
:103010005208013A52060A43154913430B61144BF7
:103020001B68134A43F080631360FDF77BFEB860B2
:1030300009E0FDF777FE0246BB68D31A022B02D9DE
:103040000323FB7305E00A4B1B6803F00063002BAE
:10305000EFD0FB7B002B06D1054B1A697B689B697F
:10306000034913430B61FB7B18461037BD4680BDF7
:103070000010024080B584B000AF78603960002352
:10308000FB73684BDB6803F00303002B18D0654B20
:10309000DB6803F003027B681B689A420DD17B68F2
:1030A0001B68002B09D05F4BDB681B0903F007038B
:1030B0005A1C7B685B689A4244D00123FB7341E051
:1030C0007B681B68022B0CD0032B13D0012B20D163
:1030D000544B1B6803F00203002B1DD10123FB732B
:1030E0001AE0504B1B6803F48063002B16D10123B8
:1030F000FB7313E04B4B1B6803F40033002B0FD121
:10310000484B1B6803F48023002B09D10123FB7378
:1031100006E00123FB7304E000BF02E000BF00E013
:1031200000BFFB7B002B0DD13E4BDB6823F073020D
:103130007B6819687B685B68013B1B010B4339495D
:103140001343CB60FB7B002B67D1364B1B68354AA2
:1031500023F080531360FDF7E5FDB86009E0FDF74B
:10316000E1FD0246BB68D31A022B02D90323FB738D
:1031700005E02C4B1B6803F00053002BEFD1FB7BC9
:10318000002B4AD13B68002B11D1264B5B6923F4FD
:103190001F3323F440737A68926811027A68D26808
:1031A000120952040A431F4913434B6111E01D4B9E
:1031B0005B6923F0C06323F4FE437A6892681102CE
:1031C0007A6812695208013A52060A4315491343B4
:1031D0004B61144B1B68134A43F080531360FDF797
:1031E000A1FDB86009E0FDF79DFD0246BB68D31A5A
:1031F000022B02D90323FB7305E00A4B1B6803F083
:103200000053002BEFD0FB7B002B06D1054B5A69F6
:103210007B685B69034913434B61FB7B184610379E
:10322000BD4680BD0010024080B582B000AF78601E
:103230007B68002B01D1012343E07B6893F8713058
:10324000DBB2002B06D17B68002283F870207868FF
:10325000FDF7E8FC7B68242283F871207B681B68FB
:103260001A687B681B6822F001021A60786800F017
:10327000B9F80346012B01D1012322E07B685B6A88
:10328000002B02D0786800F0F9FB7B681B685A6855
:103290007B681B6822F490425A607B681B689A68BE
:1032A0007B681B6822F02A029A607B681B681A6898
:1032B0007B681B6842F001021A60786800F080FCAD
:1032C000034618460837BD4680BD80B588B002AFBA
:1032D000F860B9603B601346FB8000237B61FB68AC
:1032E00093F87130DBB2202B77D1BB68002B02D072
:1032F000FB88002B01D1012370E0FB6893F870304C
:10330000012B01D1022369E0FB68012283F87020C0
:10331000FB6800225A67FB68212283F87120FDF7C1
:1033200001FD7861FB68FA88A3F85020FB68FA88F1
:10333000A3F8522034E03B6800937B69002280218F
:10334000F86800F086FC0346002B01D0032345E01B
:10335000FB689B68B3F5805F11D1FB681B69002B8C
:103360000DD1BB683B613B691A88FB681B68C2F3DF
:10337000080292B21A85BB680233BB6007E0BB68E3
:103380005A1CBA601A78FB681B6892B21A85FB68EF
:10339000B3F852309BB2013B9AB2FB68A3F85220BB
:1033A000FB68B3F852309BB2002BC4D13B6800934A
:1033B0007B6900224021F86800F04BFC0346002B9B
:1033C00001D003230AE0FB68202283F87120FB6808
:1033D000002283F87020002300E0022318461837EB
:1033E000BD4680BD2DE9904888B000AF78600023CD
:1033F000FB611023FB7600237B8100237B6100238C
:10340000FB740023FB607B689A687B681B691A4326
:103410007B685B691A437B68DB691343FB617B68EC
:103420001B681A68AB4B13407A681268F9690B4342
:1034300013607B681B685B6823F440517B68DA6823
:103440007B681B680A435A607B689B69FB617B68E9
:103450001B68A14A934204D07B681B6AFA69134334
:10346000FB617B681B689B6823F430617B681B6889
:10347000FA690A439A607B681B68984A934221D193
:10348000974BD3F8883003F00303032B16D801A21F
:1034900052F823F0A5340008B1340008AB3400081A
:1034A000B73400080123FB76E6E00223FB76E3E075
:1034B0000423FB76E0E00823FB76DDE01023FB76B7
:1034C00000BFD9E07B681B68864A934234D1844BA5
:1034D000D3F8883003F00C030C2B29D801A252F842
:1034E00023F000BF193500083135000831350008D8
:1034F0003135000825350008313500083135000820
:10350000313500081F350008313500083135000815
:10351000313500082B3500080023FB76ACE0022390
:10352000FB76A9E00423FB76A6E00823FB76A3E064
:103530001023FB7600BF9FE07B681B686A4A9342BA
:1035400020D1674BD3F8883003F03003102B0FD015
:10355000102B02D8002B05D010E0202B05D0302BEB
:1035600009D00BE00023FB7686E00223FB7683E0A4
:103570000423FB7680E00823FB767DE01023FB76B6
:1035800000BF79E07B681B68584A934220D1544BB6
:10359000D3F8883003F0C003402B0FD0402B02D863
:1035A000002B05D010E0802B05D0C02B09D00BE0FC
:1035B0000023FB7660E00223FB765DE00423FB76CC
:1035C0005AE00823FB7657E01023FB7600BF53E058
:1035D0007B681B68464A934224D1414BD3F888301C
:1035E00003F44073B3F5807F12D0B3F5807F02D827
:1035F000002B07D012E0B3F5007F06D0B3F5407F73
:1036000009D00BE00023FB7636E00223FB7633E0A3
:103610000423FB7630E00823FB762DE01023FB76B5
:1036200000BF29E07B681B682B4A934223D12C4BB7
:10363000D3F8883003F44063B3F5806F12D0B3F54C
:10364000806F02D8002B07D012E0B3F5006F06D0D0
:10365000B3F5406F09D00BE00023FB760CE00223AA
:10366000FB7609E00423FB7606E00823FB7603E003
:103670001023FB7600E000BF7B681B68164A93426C
:1036800040F0FA80FB7E082B36D801A252F823F0D6
:10369000B5360008F9360008BD360008F9360008CE
:1036A000C3360008F9360008F9360008F936000874
:1036B000CB360008FFF77CF8F86020E00D4BFB608C
:1036C0001DE0FEF7CDFFF86019E04FF40043FB600A
:1036D00015E000BFF369FFEF0080004000380140B3
:1036E000001002400044004000480040004C0040F0
:1036F000005000400024F4000123FB7400BFFB686D
:10370000002B00F0AC817B685A6813465B001344C1
:10371000FA689A4205D37B685B681B03FA689A4291
:1037200002D90123FB749AE1FB7E082B00F2918001
:1037300001A252F823F000BF5D370008533800089B
:10374000A937000853380008DD370008533800084F
:10375000533800085338000829380008FFF728F8C4
:10376000034619464FF000024FF000034FF00004EB
:10377000140244EA11640B027A6852685208114636
:103780004FF0000213EB010B44EB020C584661466C
:103790007B685B684FF000041A462346FCF718FD6F
:1037A00003460C467B6157E07B685B685B084FF023
:1037B0000004B1494FF0000213EB010B44EB020C83
:1037C000584661467B685B684FF000041A46234602
:1037D000FCF7FEFC03460C467B613DE0FEF740FF34
:1037E000034619464FF000024FF000034FF000046B
:1037F000140244EA11640B027A68526852081146B6
:103800004FF0000213EB010B44EB020C58466146EB
:103810007B685B684FF000041A462346FCF7D8FC2F
:1038200003460C467B6117E07B685B685B084FF0E2
:10383000000413F5000044F100017B685B684FF061
:1038400000041A462346FCF7C3FC03460C467B6182
:1038500002E00123FB7400BF7B69B3F5407F08D30E
:103860007B69B3F5801F04D27B681B687A69DA60D4
:10387000F5E00123FB74F2E07B68DB69B3F5004FF0
:103880007FD1FB7E082B5CD801A252F823F000BF49
:10389000B5380008D3380008F1380008433900086B
:1038A0000D3900084339000843390008433900083E
:1038B0002B390008FEF77CFF03465A007B685B68E3
:1038C0005B081A447B685B68B2FBF3F39BB27B61D5
:1038D0003AE0FEF783FF03465A007B685B685B08AB
:1038E0001A447B685B68B2FBF3F39BB27B612BE00D
:1038F0007B685B685B0803F1F47303F590437A68B7
:103900005268B3FBF2F39BB27B611DE0FEF7A8FEA9
:1039100003465A007B685B685B081A447B685B68F7
:10392000B2FBF3F39BB27B610EE07B685B685B08E4
:1039300003F580327B685B68B2FBF3F39BB27B617B
:1039400002E00123FB7400BF7B690F2B16D97B6952
:10395000B3F5803F12D27B699BB223F00F037B81CA
:103960007B695B089BB203F007039AB27B89134320
:103970007B817B681B687A89DA6070E00123FB74C5
:103980006DE0FB7E082B59D801A252F823F000BF4E
:10399000B5390008D1390008ED3900083D3A000872
:1039A000093A00083D3A00083D3A00083D3A00084F
:1039B000253A0008FEF7FCFE02467B685B685B0860
:1039C0001A447B685B68B2FBF3F39BB27B6138E01F
:1039D000FEF704FF02467B685B685B081A447B685D
:1039E0005B68B2FBF3F39BB27B612AE07B685B68A8
:1039F0005B0803F5740303F510537A685268B3FB50
:103A0000F2F39BB27B611CE0FEF72AFE02467B6864
:103A10005B685B081A447B685B68B2FBF3F39BB29C
:103A20007B610EE07B685B685B0803F500427B68A6
:103A30005B68B2FBF3F39BB27B6102E00123FB7492
:103A400000BF7B690F2B08D97B69B3F5803F04D297
:103A50007B681B687A69DA6001E00123FB747B688C
:103A600000221A667B6800225A66FB7C18462037C3
:103A7000BD46BDE8908800BF000024F480B483B048
:103A800000AF78607B685B6A03F00103002B0AD00B
:103A90007B681B685B6823F400317B689A6A7B68EB
:103AA0001B680A435A607B685B6A03F00203002BC1
:103AB0000AD07B681B685B6823F480317B68DA6A14
:103AC0007B681B680A435A607B685B6A03F00403E7
:103AD000002B0AD07B681B685B6823F480217B681D
:103AE0001A6B7B681B680A435A607B685B6A03F049
:103AF0000803002B0AD07B681B685B6823F4004135
:103B00007B685A6B7B681B680A435A607B685B6AF8
:103B100003F01003002B0AD07B681B689B6823F41A
:103B200080517B689A6B7B681B680A439A607B684C
:103B30005B6A03F02003002B0AD07B681B689B683C
:103B400023F400517B68DA6B7B681B680A439A6038
:103B50007B685B6A03F04003002B1AD07B681B680C
:103B60005B6823F480117B681A6C7B681B680A43CE
:103B70005A607B681B6CB3F5801F0AD17B681B6899
:103B80005B6823F4C0017B685A6C7B681B680A433E
:103B90005A607B685B6A03F08003002B0AD07B6865
:103BA0001B685B6823F400217B689A6C7B681B6848
:103BB0000A435A6000BF0C37BD465DF8047B70476E
:103BC00080B586B002AF78600023FB607B6800227E
:103BD0005A67FDF7A7F8F8607B681B681B6803F05D
:103BE0000803082B0ED16FF07E430093FB68002280
:103BF0004FF40011786800F02CF80346002B01D038
:103C0000032322E07B681B681B6803F00403042B7A
:103C10000ED16FF07E430093FB6800224FF48001C9
:103C2000786800F016F80346002B01D003230CE05F
:103C30007B68202283F871207B68202283F8722021
:103C40007B68002283F87020002318461037BD4699
:103C500080BD80B584B000AFF860B9603B601346AA
:103C6000FB712CE0BB69B3F1FF3F28D0BB69002B8F
:103C700007D0FDF757F802463B68D31ABA699A4253
:103C80001DD2FB681B681A68FB681B6822F4D0729F
:103C90001A60FB681B689A68FB681B6822F00102C7
:103CA0009A60FB68202283F87120FB68202283F849
:103CB0007220FB68002283F8702003230FE0FB686A
:103CC0001B68DA69BB681340BA689A420CBF0123CB
:103CD0000023DBB21A46FB799A42C3D00023184670
:103CE0001037BD4680BD0000DFF834D0002103E06E
:103CF0000C4B5B58435004310B480C4B42189A4212
:103D0000F6D30B4A02E0002342F8043B094B9A42E7
:103D1000F9D3FCF71DFF00F011F8FCF795FDFEE765
:103D200000800120184F00080000002068000020DB
:103D3000680000205C010020FEE7000070B50D4E19
:103D40000D4CA41BA4100025A54209D10B4E0C4C10
:103D500000F0B6FFA41BA4100025A54205D170BD3C
:103D600056F8253098470135EEE756F82530984744
:103D70000135F2E7084F0008084F0008084F000817
:103D80000C4F000830B50024A24201D1002007E00A
:103D9000035D01340D1915F8015CAB42F4D0581BDA
:103DA00030BD10B5431E0A44914200D110BD11F838
:103DB000014B03F8014FF7E702440346934200D159
:103DC000704703F8011BF9E70FB40A4B13B51C68E1
:103DD00024B1A36913B9204600F022FA05AB049A76
:103DE000A1680193204600F0DBFB02B0BDE8104063
:103DF00004B070470400002070B50E46054618B1A7
:103E000083690BB900F00CFAAB69AC6813B92846AA
:103E100000F006FA234B9C4217D16C68A3891B075C
:103E20001DD52369DBB1013EA36816F8011F013BD4
:103E3000A360E9B9002B2EDA22460A21284600F0B9
:103E40003FF8013011D00A2011E0174B9C4201D1FC
:103E5000AC68E3E7154B9C4208BFEC68DEE72146FF
:103E6000284600F07FF80028DDD04FF0FF3070BD0D
:103E7000002B04DAA2699A4206DC0A2904D02368DE
:103E80005A1C22601970CFE72246284600F018F825
:103E90000130C9D1E9E723680A205A1C2260187052
:103EA000E5E700BF884E0008A84E0008684E0008ED
:103EB000024B01461868FFF79FBF00BF04000020B7
:103EC000F8B50E461446054618B183690BB900F0E3
:103ED000A7F9214B9C422AD16C68A369A360A389EE
:103EE0001A072ED5236963B323692068C01A636952
:103EF000F6B28342374604DC2146284600F026F914
:103F000028BBA368013BA36023685A1C22601E7073
:103F100063690130834204D0A389DB0719D50A2ED7
:103F200017D12146284600F011F990B10FE00B4B54
:103F30009C4201D1AC68D0E7094B9C4208BFEC68B9
:103F4000CBE72146284600F00DF80028CCD04FF0F2
:103F5000FF373846F8BD00BF884E0008A84E00085D
:103F6000684E0008324B70B51D6806460C4625B1F8
:103F7000AB6913B9284600F053F92E4B9C420FD180
:103F80006C68B4F90C309AB215072CD4D00611D451
:103F90000922326043F04003A3814FF0FF303EE03E
:103FA000254B9C4201D1AC68EBE7244B9C4208BFF7
:103FB000EC68E6E7510712D5616B41B104F14403A7
:103FC000994202D0304600F019FA00236363A389B6
:103FD00023F02403A3810023636023692360A38962
:103FE00043F00803A38123694BB9A38903F4207329
:103FF000B3F5007F03D02146304600F0BFF9A28917
:1040000012F001030CD00023A36063695B42A3613B
:10401000236953B9B4F90C3013F08000BAD170BDE4
:10402000920758BF6369A360F2E70020F7E700BF7B
:1040300004000020884E0008A84E0008684E0008C2
:104040008A892DE9F041054610070C4658D44B6883
:10405000002B05DC0B6C002B02DC0020BDE8F0819E
:10406000E66A002EF9D0002312F480522F68216AEC
:104070002B6032D0606DA3895A0705D56368C01ADA
:10408000636B0BB1236CC01A00230246E66A216AF7
:104090002846B047431CA38906D129681D2948D862
:1040A000294ACA40D60744D500226260D904226951
:1040B000226004D5421C01D12B6803B96065616B95
:1040C0002F600029C9D004F14403994202D0284648
:1040D00000F094F900206063C0E701232846B04750
:1040E000411CC8D12B68002BC5D01D2B01D0162B2D
:1040F00001D12F60B1E7A38943F04003A381ADE76D
:104100000F69002FA9D093070E6808BF4B690F6095
:1041100018BF0023A6EB07088B60B8F1000F9CDDE9
:1041200043463A46216AA66A2846B047002806DC7C
:10413000A38943F04003A3814FF0FF308EE707448B
:10414000A8EB0008E9E700BF0100402038B50B6983
:1041500005460C46DBB118B183690BB900F060F875
:104160000C4B9C4209D16C68B4F90C307BB12146F0
:104170002846BDE83840FFF763BF074B9C4201D19A
:10418000AC68F1E7054B9C4208BFEC68ECE7002007
:1041900038BD00BF884E0008A84E0008684E0008D1
:1041A000002310B50446C0E9003383608181436673
:1041B000C281C0E904338361194608225C30FFF7ED
:1041C000FBFD054B6362054BA362054BE362054BA8
:1041D0002462236310BD00BFF94A00081B4B00088E
:1041E000534B0008774B0008014900F085B800BF29
:1041F0004D41000870B54A1E682555430E4605F12D
:10420000740100F049F9044640B10021C0E90016EC
:104210000C30A06005F16802FFF7CEFD204670BDAE
:10422000836910B5044633BBC0E912330365124BF2
:10423000124A1B688262984204BF0123836100F026
:104240001FF86060204600F01BF8A060204600F0D8
:1042500017F80022E06004216068FFF7A1FF012247
:104260000921A068FFF79CFF02221221E068FFF7F6
:1042700097FF0123A36110BD644E0008E9410008C7
:10428000F8B51B4B1E68B369074613B93046FFF7F4
:10429000C7FF4836D6E90134013B03D5336833B153
:1042A0003668F7E7B4F90C506DB16834F4E70421CF
:1042B0003846FFF79FFF30600028F1D10C233B60A8
:1042C00004462046F8BD0B4B6566C4E90055A56061
:1042D000C4E90335C4E905550822294604F15C0008
:1042E000FFF76AFDC4E90D55C4E91255E9E700BFBF
:1042F000644E00080100FFFF2DE9F843804689461F
:1043000000F14804002614B93046BDE8F883D4E92A
:104310000175013F01D52468F5E7AB89012B07D969
:10432000B5F90E30013303D029464046C84706434D
:104330006835EEE770B50E46B1F90E10002996B05B
:1043400014461D4607DA00232B60B3891A0610D4E1
:104350004FF480630EE06A4600F034FC0028F2DB84
:10436000019A02F47042A2F500535A425A412A605F
:10437000EEE740230020236016B070BD8B8973B533
:104380009D0706460C4607D504F1470323602361C9
:104390000123636102B070BD01AB6A46FFF7CAFF3B
:1043A00000990546304600F077F848B9B4F90C306A
:1043B0009A05EFD423F0030343F00203A381E3E75C
:1043C0000D4BB362A389206043F08003A381009B5F
:1043D0006361019B20615BB1B4F90E10304600F0BF
:1043E00003FC28B1A38923F0030343F00103A38155
:1043F000A3891D43A581CDE7E941000838B50546ED
:10440000002945D051F8043C0C1F002BB8BFE4181C
:1044100000F00CFC1F4A1368104633B96360146047
:104420002846BDE8384000F002BCA3420CD9216800
:104430006218934204BF1A685B68636004BF521835
:1044400022600460ECE713465A680AB1A242FAD926
:1044500019685818A0420BD12068014458188242AC
:104460001960DDD1106852685A6001441960D7E7BD
:1044700002D90C232B60D3E7206821188A4204BF9D
:1044800011685268626004BF091821605C60C7E768
:1044900038BD00BF8400002070B5CD1C25F0030599
:1044A00008350C2D38BF0C25002D064601DBA9422E
:1044B00003D90C233360002070BD00F0B7FB214A04
:1044C0001468214691B9204C23681BB9304600F08E
:1044D00003FB20602946304600F0FEFA431C24D13D
:1044E0000C233360304600F0A2FBE4E70B685B1B53
:1044F00018D40B2B0FD90B60CD50CC18304600F0E0
:1045000096FB04F10B00231D20F00700C31AD3D043
:104510005A42E250D0E78C424B6816BF636013608A
:104520000C46EBE70C464968CCE7C41C24F00304B6
:10453000A04205D0211A304600F0CEFA0130CFD08B
:104540002560DBE784000020880000209368013BA1
:10455000002B10B4936008DA9469A34201DB0A29A6
:1045600003D15DF8044BFFF7ABBC1368581C106017
:10457000197008465DF8044B7047F8B506460F46BB
:104580001446D518AC4201D1002007E03A4614F891
:10459000011B3046FFF7DAFF431CF3D1F8BD0000E2
:1045A0002DE9F04F9DB00C4617460393064618B10F
:1045B00083690BB9FFF734FE7B4B9C4257D174687B
:1045C000A38918075DD52369002B5AD000230993CE
:1045D00020238DF8293030238DF82A304FF0010B3D
:1045E000B846454615F8013B0BB1252B54D1B8EB25
:1045F000070A0BD053463A4621463046FFF7BDFF27
:10460000013000F0C280099B5344099398F80030B0
:10461000002B00F0BA8000234FF0FF32CDE90523D4
:10462000049307938DF853301A93A846052218F87F
:10463000011B5E48FBF74CFF049B78BBD90644BFC7
:1046400020228DF853201A0744BF2B228DF85320C7
:104650002A782A2A2AD0079AA84600200A25414605
:1046600011F8013B303B092B69D960B324E0504B72
:104670009C4201D1B468A3E74E4B9C4208BFF4684A
:104680009EE721463046FFF76DFC00289ED04FF094
:10469000FF301DB0BDE8F08FA846A2E7434A801A5C
:1046A0000BFA00F0184304904546BEE7039A111D2B
:1046B00012680391002A01DB079204E0524243F0A2
:1046C00002030792049398F800302E2B0ED198F82D
:1046D00001302A2B38D1039B1A1D1B680392002B33
:1046E000B8BF4FF0FF3308F102080593324D98F838
:1046F000001003222846FBF7EBFE40B14023401B8D
:1047000003FA00F0049B034308F10108049398F8AE
:1047100000102A488DF82810062208F10107FBF73F
:10472000D7FE002837D0264B1BBB039B073323F053
:10473000070308330393099B4B44099350E705FB98
:104740000232012088468AE7002308F10108059318
:1047500019460A25404610F8012B303A092A03D998
:10476000002BC3D00591C1E705FB01210123804641
:10477000F0E703AB00932246124B04A93046AFF397
:104780000080B0F1FF3F8146D5D1A3895B063FF59C
:104790007EAF09987DE703AB00932246094B04A93D
:1047A000304600F087F8ECE7884E0008C84E000855
:1047B000A84E0008684E0008CE4E0008D24E0008F1
:1047C000000000007B4500082DE9F04791461F4698
:1047D0008A680B69DDF820809342B8BF1346C9F898
:1047E000003091F8432006460C4612B10133C9F857
:1047F00000302368990642BFD9F800300233C9F867
:104800000030256815F0060507D104F1190AE368A0
:10481000D9F800209B1AAB4228DC94F84330226878
:10482000003318BF012392062DD404F14302394608
:104830003046C047013020D02368E568D9F8002011
:1048400003F00603042B08BFAD1AA36822690CBF4E
:1048500025EAE57500259342C4BF9B1AED184FF079
:1048600000091A344D451AD1002008E001235246B0
:1048700039463046C047013003D14FF0FF30BDE824
:10488000F0870135C3E7E1185A1C302081F8430056
:10489000224494F8451082F843100233C5E70123FF
:1048A000224639463046C0470130E6D009F10109B9
:1048B000D8E700002DE9F04301F1430C0C46097ED6
:1048C00085B06E291746064698460C9A00F0B380CC
:1048D00022D8632936D00AD8002900F0B980582997
:1048E00000F0838004F1420584F8421032E064292C
:1048F00001D06929F6D120681368050603F1040187
:104900002AD51B681160002B03DA2D225B4284F844
:1049100043206F480A2239E0732900F09D8008D8AF
:104920006F2920D07029DDD1236843F02003236054
:1049300003E0752917D07829D4D1782384F845303D
:10494000644855E01368191D1B68116004F14205A5
:1049500084F8423001238CE01B68116010F0400F96
:1049600018BF1BB2CFE713682568181D1060280612
:1049700001D51B6802E06806FBD51B8854486F29E7
:1049800014BF0A220822002184F843106568A5603C
:10499000002DC0F29580216821F004012160002BD8
:1049A0003DD1002D40F08E806546082A0BD123684A
:1049B000DB0708D5236962689A42DEBF302305F819
:1049C000013C05F1FF35ACEB05032361CDF8008018
:1049D0003B4603AA21463046FFF7F6FE01304DD193
:1049E0004FF0FF3005B0BDE8F083394884F845103A
:1049F000136821681D1D1B6815600A060BD5CA07C0
:104A000044BF41F0200121601BB9226822F020023E
:104A100022601022B7E74D0648BF9BB2EFE765461C
:104A2000B3FBF2F102FB1133C35C05F8013D0B4609
:104A30000029F5D1B9E7136825686169181D106070
:104A400028061B6801D5196002E06A06FBD51980AB
:104A5000002323616546B9E71368191D11601D68BD
:104A6000626800212846FBF733FD08B1401B6060F7
:104A700063682361002384F84330A7E723692A464B
:104A800039463046C0470130AAD023689B0713D46B
:104A9000E068039B9842B8BF1846A3E701234A4643
:104AA00039463046C04701309AD00135E368039A51
:104AB0009B1AAB42F2DCEBE7002504F11909F5E79C
:104AC000002BACD1037884F8423004F142056CE746
:104AD000D94E0008EA4E000838B5064C00230546BA
:104AE0000846236000F0DEF8431C02D1236803B1BE
:104AF0002B6038BD5801002010B50C46B1F90E10DE
:104B000000F096F80028ABBF636DA3891B1823F44F
:104B10008053ACBF6365A38110BD2DE9F0411F46F2
:104B20008B89DB0505460C46164605D50223002277
:104B3000B1F90E1000F068F8A389B4F90E1023F44F
:104B40008053A38132463B462846BDE8F04100F041
:104B500017B810B50C46B1F90E1000F055F8431C0B
:104B6000A38915BF606523F4805343F48053A38168
:104B700018BFA38110BDB1F90E1000F013B80000EA
:104B800038B5074C054608461146002222601A46F1
:104B9000FBF744FF431C02D1236803B12B6038BDEF
:104BA0005801002038B5064C00230546084623600E
:104BB00000F050F8431C02D1236803B12B6038BDCC
:104BC0005801002038B5074C002305460846114619
:104BD000236000F047F8431C02D1236803B12B6027
:104BE00038BD00BF5801002038B5064C00230546EB
:104BF0000846236000F03EF8431C02D1236803B14D
:104C00002B6038BD5801002038B5074C05460846D2
:104C10001146002222601A4600F034F8431C02D1EB
:104C2000236803B12B6038BD5801002070477047DE
:104C300038B5074C054608461146002222601A4640
:104C400000F028F8431C02D1236803B12B6038BD63
:104C500058010020024B58221A604FF0FF30704775
:104C600058010020024B58221A604FF0FF30704765
:104C700058010020024B58221A600020704700BFE4
:104C800058010020024B58221A604FF0FF30704745
:104C900058010020024B58221A604FF0FF30704735
:104CA00058010020044A05491368002B08BF0B4631
:104CB00018441060184670478C00002060010020E6
:104CC000F8B500BFF8BC08BC9E467047F8B500BFF9
:084CD000F8BC08BC9E467047C9
:104CD8004D414320616464726573732049432032F7
:104CE8003441413032457878206973206E6F7420E2
:104CF800666F756E640D000048414C5F4932435F32
:104D08004D656D5F52656164206572726F72203AFD
:104D18002025640D0A0000004F5549206572726F06
:104D280072206F72206E6577204D6963726F6368B9
:104D38006970204F55492069732061646465642E49
:104D4800204F55493A253032582D253032582D25D7
:104D58003032582E207265666572203A20226874B7
:104D680074703A2F2F7374616E64617264732D6F5F
:104D780075692E696565652E6F72672F6F75692F66
:104D88006F75692E747874220D0A00002E2E2F4339
:104D98006F72652F5372632F6932632E63000000B0
:104DA8004555492D34382C00253032582D00000047
:104DB800253032580D0A00004555492D36342C004F
:104DC8006765745F4D41435F616464726573732006
:104DD80066616C73650D00002E2E2F436F72652F70
:104DE8005372632F6D61696E2E6300002E2E2F4360
:104DF8006F72652F5372632F75736172742E63001F
:104E08005410EC801F12049162001EC00004A3D845
:104E180080390000000000000000000001020304C7
:104E2800060708090000000001020304A08601002B
:104E3800400D0300801A060000350C0040420F00A8
:104E480080841E0000093D0000127A000024F4004E
:104E580000366E010048E801006CDC020800002002
:104E6800000000000000000000000000000000003A
:104E7800000000000000000000000000000000002A
:104E8800000000000000000000000000000000001A
:104E9800000000000000000000000000000000000A
:104EA80000000000000000000000000000000000FA
:104EB80000000000000000000000000000000000EA
:104EC800232D302B2000686C4C00656667454647EB
:104ED800003031323334353637383941424344456E
:104EE80046003031323334353637383961626364DD
:084EF8006566000000000000E7
:084F000000B3FF7F0100000077
:084F0800B501000800000000E3
:084F10009101000800000000FF
:104F180000093D000800002000000000884E00083D
:104F2800A84E0008684E00080000000000000000BD
:104F38000000000000000000000000000000000069
:104F48000000000000000000000000000000000059
:104F58000000000000000000000000000000000049
:104F68000000000000000000000000000000000039
:084F7800000000000000000031
:0400000508003CE9CA
:00000001FF
